{
  "contractName": "VillaToken",
  "abi": [
    {
      "constant": true,
      "inputs": [],
      "name": "totalSupply",
      "outputs": [
        {
          "name": "",
          "type": "uint256"
        }
      ],
      "payable": false,
      "stateMutability": "view",
      "type": "function",
      "signature": "0x18160ddd"
    },
    {
      "inputs": [],
      "payable": false,
      "stateMutability": "nonpayable",
      "type": "constructor",
      "signature": "constructor"
    }
  ],
  "bytecode": "0x608060405234801561001057600080fd5b50620f4240600081905550609e806100296000396000f3fe608060405260043610603f576000357c0100000000000000000000000000000000000000000000000000000000900463ffffffff16806318160ddd146044575b600080fd5b348015604f57600080fd5b506056606c565b6040518082815260200191505060405180910390f35b6000548156fea165627a7a72305820b2f9d344e3e8e484e7c4c902abbfbc79bbce1d3fc26168641045b844dcc42d4b0029",
  "source": "pragma solidity >=0.4.21 <0.6.0;\r\n\r\ncontract  VillaToken {\r\n    //read the total amount of tokens\r\n    uint256 public totalSupply;\r\n    //constructor\r\n    constructor () public {\r\n        //set total tokens\r\n        totalSupply = 1000000;\r\n    }\r\n}",
  "sourcePath": "D:/Documents/coding/ethereum/VillaToken/contracts/VillaToken.sol",
  "compiler": {
    "name": "solc",
    "version": "0.5.0+commit.1d4f565a.Emscripten.clang"
  },
  "schemaVersion": "3.0.1",
  "updatedAt": "2019-01-09T16:43:56.257Z",
  "devdoc": {
    "methods": {}
  },
  "userdoc": {
    "methods": {}
  }
}